{
  "contractName": "Voting",
  "abi": [
    {
      "inputs": [],
      "stateMutability": "nonpayable",
      "type": "constructor"
    },
    {
      "anonymous": false,
      "inputs": [
        {
          "indexed": true,
          "internalType": "address",
          "name": "previousOwner",
          "type": "address"
        },
        {
          "indexed": true,
          "internalType": "address",
          "name": "newOwner",
          "type": "address"
        }
      ],
      "name": "OwnershipTransferred",
      "type": "event"
    },
    {
      "anonymous": false,
      "inputs": [
        {
          "indexed": false,
          "internalType": "uint256",
          "name": "_proposalId",
          "type": "uint256"
        }
      ],
      "name": "ProposalRegistered",
      "type": "event"
    },
    {
      "anonymous": false,
      "inputs": [
        {
          "indexed": false,
          "internalType": "address",
          "name": "_voter",
          "type": "address"
        },
        {
          "indexed": false,
          "internalType": "uint256",
          "name": "_proposalId",
          "type": "uint256"
        }
      ],
      "name": "Voted",
      "type": "event"
    },
    {
      "anonymous": false,
      "inputs": [
        {
          "indexed": false,
          "internalType": "address",
          "name": "_voterAddress",
          "type": "address"
        }
      ],
      "name": "VoterRegistered",
      "type": "event"
    },
    {
      "anonymous": false,
      "inputs": [
        {
          "indexed": false,
          "internalType": "enum Voting.WorkflowStatus",
          "name": "_previousStatus",
          "type": "uint8"
        },
        {
          "indexed": false,
          "internalType": "enum Voting.WorkflowStatus",
          "name": "_newStatus",
          "type": "uint8"
        }
      ],
      "name": "WorkflowStatusChange",
      "type": "event"
    },
    {
      "inputs": [],
      "name": "owner",
      "outputs": [
        {
          "internalType": "address",
          "name": "",
          "type": "address"
        }
      ],
      "stateMutability": "view",
      "type": "function",
      "constant": true
    },
    {
      "inputs": [],
      "name": "renounceOwnership",
      "outputs": [],
      "stateMutability": "nonpayable",
      "type": "function"
    },
    {
      "inputs": [
        {
          "internalType": "address",
          "name": "newOwner",
          "type": "address"
        }
      ],
      "name": "transferOwnership",
      "outputs": [],
      "stateMutability": "nonpayable",
      "type": "function"
    },
    {
      "inputs": [],
      "name": "workflowStatus",
      "outputs": [
        {
          "internalType": "enum Voting.WorkflowStatus",
          "name": "",
          "type": "uint8"
        }
      ],
      "stateMutability": "view",
      "type": "function",
      "constant": true
    },
    {
      "inputs": [],
      "name": "nextStatus",
      "outputs": [],
      "stateMutability": "nonpayable",
      "type": "function"
    },
    {
      "inputs": [
        {
          "internalType": "address",
          "name": "_address",
          "type": "address"
        }
      ],
      "name": "addVoter",
      "outputs": [],
      "stateMutability": "nonpayable",
      "type": "function"
    },
    {
      "inputs": [
        {
          "internalType": "string",
          "name": "_description",
          "type": "string"
        }
      ],
      "name": "addProposal",
      "outputs": [],
      "stateMutability": "nonpayable",
      "type": "function"
    },
    {
      "inputs": [
        {
          "internalType": "uint256",
          "name": "_proposalID",
          "type": "uint256"
        }
      ],
      "name": "setVote",
      "outputs": [],
      "stateMutability": "nonpayable",
      "type": "function"
    },
    {
      "inputs": [],
      "name": "getWinner",
      "outputs": [
        {
          "internalType": "uint256",
          "name": "",
          "type": "uint256"
        },
        {
          "internalType": "string",
          "name": "",
          "type": "string"
        },
        {
          "internalType": "uint256",
          "name": "",
          "type": "uint256"
        }
      ],
      "stateMutability": "view",
      "type": "function",
      "constant": true
    },
    {
      "inputs": [],
      "name": "reset",
      "outputs": [],
      "stateMutability": "nonpayable",
      "type": "function"
    },
    {
      "inputs": [
        {
          "internalType": "address",
          "name": "_address",
          "type": "address"
        }
      ],
      "name": "changeOwner",
      "outputs": [],
      "stateMutability": "nonpayable",
      "type": "function"
    },
    {
      "inputs": [],
      "name": "getWhiteList",
      "outputs": [
        {
          "internalType": "address[]",
          "name": "",
          "type": "address[]"
        }
      ],
      "stateMutability": "view",
      "type": "function",
      "constant": true
    },
    {
      "inputs": [
        {
          "internalType": "address",
          "name": "_address",
          "type": "address"
        }
      ],
      "name": "getVoter",
      "outputs": [
        {
          "components": [
            {
              "internalType": "bool",
              "name": "isRegistered",
              "type": "bool"
            },
            {
              "internalType": "bool",
              "name": "hasVoted",
              "type": "bool"
            },
            {
              "internalType": "uint256",
              "name": "votedProposalId",
              "type": "uint256"
            }
          ],
          "internalType": "struct Voting.Voter",
          "name": "",
          "type": "tuple"
        }
      ],
      "stateMutability": "view",
      "type": "function",
      "constant": true
    },
    {
      "inputs": [],
      "name": "getProposals",
      "outputs": [
        {
          "components": [
            {
              "internalType": "string",
              "name": "description",
              "type": "string"
            },
            {
              "internalType": "uint256",
              "name": "voteCount",
              "type": "uint256"
            }
          ],
          "internalType": "struct Voting.Proposal[]",
          "name": "",
          "type": "tuple[]"
        }
      ],
      "stateMutability": "view",
      "type": "function",
      "constant": true
    }
  ],
  "bytecode": "0x60806040523480156200001157600080fd5b5062000032620000266200004960201b60201c565b6200005160201b60201c565b62000043336200011560201b60201c565b62000706565b600033905090565b60008060009054906101000a900473ffffffffffffffffffffffffffffffffffffffff169050816000806101000a81548173ffffffffffffffffffffffffffffffffffffffff021916908373ffffffffffffffffffffffffffffffffffffffff1602179055508173ffffffffffffffffffffffffffffffffffffffff168173ffffffffffffffffffffffffffffffffffffffff167f8be0079c531659141344cd1fd0a4f28419497f9722a3daafe3b4186f6b6457e060405160405180910390a35050565b620001256200004960201b60201c565b73ffffffffffffffffffffffffffffffffffffffff166200014b6200042760201b60201c565b73ffffffffffffffffffffffffffffffffffffffff1614620001a4576040517f08c379a00000000000000000000000000000000000000000000000000000000081526004016200019b90620004b1565b60405180910390fd5b60006005811115620001bb57620001ba620004d3565b5b600060149054906101000a900460ff166005811115620001e057620001df620004d3565b5b1462000223576040517f08c379a00000000000000000000000000000000000000000000000000000000081526004016200021a9062000552565b60405180910390fd5b600073ffffffffffffffffffffffffffffffffffffffff168173ffffffffffffffffffffffffffffffffffffffff160362000295576040517f08c379a00000000000000000000000000000000000000000000000000000000081526004016200028c90620005ea565b60405180910390fd5b60001515600160008373ffffffffffffffffffffffffffffffffffffffff1673ffffffffffffffffffffffffffffffffffffffff16815260200190815260200160002060000160009054906101000a900460ff161515146200032e576040517f08c379a0000000000000000000000000000000000000000000000000000000008152600401620003259062000682565b60405180910390fd5b60018060008373ffffffffffffffffffffffffffffffffffffffff1673ffffffffffffffffffffffffffffffffffffffff16815260200190815260200160002060000160006101000a81548160ff0219169083151502179055506002819080600181540180825580915050600190039060005260206000200160009091909190916101000a81548173ffffffffffffffffffffffffffffffffffffffff021916908373ffffffffffffffffffffffffffffffffffffffff1602179055507fb6be2187d059cc2a55fe29e0e503b566e1e0f8c8780096e185429350acffd3dd816040516200041c9190620006e9565b60405180910390a150565b60008060009054906101000a900473ffffffffffffffffffffffffffffffffffffffff16905090565b600082825260208201905092915050565b7f4f776e61626c653a2063616c6c6572206973206e6f7420746865206f776e6572600082015250565b60006200049960208362000450565b9150620004a68262000461565b602082019050919050565b60006020820190508181036000830152620004cc816200048a565b9050919050565b7f4e487b7100000000000000000000000000000000000000000000000000000000600052602160045260246000fd5b7f546865207265676973746572696e6720706572696f64206973206f7665722e00600082015250565b60006200053a601f8362000450565b9150620005478262000502565b602082019050919050565b600060208201905081810360008301526200056d816200052b565b9050919050565b7f5468652061646472657373206e6565647320746f20626520646966666572656e60008201527f742066726f6d207a65726f2e0000000000000000000000000000000000000000602082015250565b6000620005d2602c8362000450565b9150620005df8262000574565b604082019050919050565b600060208201905081810360008301526200060581620005c3565b9050919050565b7f5468697320766f74657220686173206265656e20616c7265616479207265676960008201527f7374657265642e00000000000000000000000000000000000000000000000000602082015250565b60006200066a60278362000450565b915062000677826200060c565b604082019050919050565b600060208201905081810360008301526200069d816200065b565b9050919050565b600073ffffffffffffffffffffffffffffffffffffffff82169050919050565b6000620006d182620006a4565b9050919050565b620006e381620006c4565b82525050565b6000602082019050620007006000830184620006d8565b92915050565b612c2580620007166000396000f3fe608060405234801561001057600080fd5b50600436106100ea5760003560e01c8063a1edffa21161008c578063d826f88f11610066578063d826f88f14610215578063f2fde38b1461021f578063f4ab9adf1461023b578063fc1c481e14610257576100ea565b8063a1edffa2146101ab578063a6f9dae1146101c9578063d4f50f98146101e5576100ea565b806362564c48116100c857806362564c4814610145578063715018a6146101635780638da5cb5b1461016d5780638e7ea5b21461018b576100ea565b806309a9d76c146100ef578063230796ae1461010d5780632fdae3c514610129575b600080fd5b6100f7610261565b6040516101049190611cec565b60405180910390f35b61012760048036038101906101229190611d58565b610385565b005b610143600480360381019061013e9190611ecb565b6106f1565b005b61014d6108b8565b60405161015a91906120aa565b60405180910390f35b61016b610ac0565b005b610175610b48565b60405161018291906120db565b60405180910390f35b610193610b71565b6040516101a29392919061214f565b60405180910390f35b6101b3610cd5565b6040516101c09190612204565b60405180910390f35b6101e360048036038101906101de919061224b565b610ce8565b005b6101ff60048036038101906101fa919061224b565b610f90565b60405161020c91906122d5565b60405180910390f35b61021d61112e565b005b6102396004803603810190610234919061224b565b611488565b005b6102556004803603810190610250919061224b565b61157f565b005b61025f61186d565b005b606060011515600160003373ffffffffffffffffffffffffffffffffffffffff1673ffffffffffffffffffffffffffffffffffffffff16815260200190815260200160002060000160009054906101000a900460ff161515146102f9576040517f08c379a00000000000000000000000000000000000000000000000000000000081526004016102f090612362565b60405180910390fd5b600280548060200260200160405190810160405280929190818152602001828054801561037b57602002820191906000526020600020905b8160009054906101000a900473ffffffffffffffffffffffffffffffffffffffff1673ffffffffffffffffffffffffffffffffffffffff1681526020019060010190808311610331575b5050505050905090565b60011515600160003373ffffffffffffffffffffffffffffffffffffffff1673ffffffffffffffffffffffffffffffffffffffff16815260200190815260200160002060000160009054906101000a900460ff1615151461041b576040517f08c379a000000000000000000000000000000000000000000000000000000000815260040161041290612362565b60405180910390fd5b6003600581111561042f5761042e61218d565b5b600060149054906101000a900460ff1660058111156104515761045061218d565b5b14610491576040517f08c379a0000000000000000000000000000000000000000000000000000000008152600401610488906123f4565b60405180910390fd5b60001515600160003373ffffffffffffffffffffffffffffffffffffffff1673ffffffffffffffffffffffffffffffffffffffff16815260200190815260200160002060000160019054906101000a900460ff16151514610527576040517f08c379a000000000000000000000000000000000000000000000000000000000815260040161051e90612460565b60405180910390fd5b600160038054905061053991906124af565b81111561057b576040517f08c379a00000000000000000000000000000000000000000000000000000000081526004016105729061252f565b60405180910390fd5b6001600382815481106105915761059061254f565b5b906000526020600020906002020160010160008282546105b1919061257e565b9250508190555060018060003373ffffffffffffffffffffffffffffffffffffffff1673ffffffffffffffffffffffffffffffffffffffff16815260200190815260200160002060000160016101000a81548160ff02191690831515021790555080600160003373ffffffffffffffffffffffffffffffffffffffff1673ffffffffffffffffffffffffffffffffffffffff1681526020019081526020016000206001018190555060036004548154811061066f5761066e61254f565b5b906000526020600020906002020160010154600382815481106106955761069461254f565b5b90600052602060002090600202016001015411156106b557806004819055505b7f4d99b957a2bc29a30ebd96a7be8e68fe50a3c701db28a91436490b7d53870ca433826040516106e69291906125d4565b60405180910390a150565b60011515600160003373ffffffffffffffffffffffffffffffffffffffff1673ffffffffffffffffffffffffffffffffffffffff16815260200190815260200160002060000160009054906101000a900460ff16151514610787576040517f08c379a000000000000000000000000000000000000000000000000000000000815260040161077e90612362565b60405180910390fd5b6001600581111561079b5761079a61218d565b5b600060149054906101000a900460ff1660058111156107bd576107bc61218d565b5b146107fd576040517f08c379a00000000000000000000000000000000000000000000000000000000081526004016107f49061266f565b60405180910390fd5b60006040518060400160405280838152602001600081525090506003819080600181540180825580915050600190039060005260206000209060020201600090919091909150600082015181600001908051906020019061085f929190611af4565b506020820151816001015550507f92e393e9b54e2f801d3ea4beb0c5e71a21cc34a5d34b77d0fb8a3aa1650dc18f600160038054905061089f91906124af565b6040516108ac919061268f565b60405180910390a15050565b606060011515600160003373ffffffffffffffffffffffffffffffffffffffff1673ffffffffffffffffffffffffffffffffffffffff16815260200190815260200160002060000160009054906101000a900460ff16151514610950576040517f08c379a000000000000000000000000000000000000000000000000000000000815260040161094790612362565b60405180910390fd5b600160058111156109645761096361218d565b5b600060149054906101000a900460ff1660058111156109865761098561218d565b5b10156109c7576040517f08c379a00000000000000000000000000000000000000000000000000000000081526004016109be9061271c565b60405180910390fd5b6003805480602002602001604051908101604052809291908181526020016000905b82821015610ab75783829060005260206000209060020201604051806040016040529081600082018054610a1c9061276b565b80601f0160208091040260200160405190810160405280929190818152602001828054610a489061276b565b8015610a955780601f10610a6a57610100808354040283529160200191610a95565b820191906000526020600020905b815481529060010190602001808311610a7857829003601f168201915b50505050508152602001600182015481525050815260200190600101906109e9565b50505050905090565b610ac8611a28565b73ffffffffffffffffffffffffffffffffffffffff16610ae6610b48565b73ffffffffffffffffffffffffffffffffffffffff1614610b3c576040517f08c379a0000000000000000000000000000000000000000000000000000000008152600401610b33906127e8565b60405180910390fd5b610b466000611a30565b565b60008060009054906101000a900473ffffffffffffffffffffffffffffffffffffffff16905090565b600060606000600580811115610b8a57610b8961218d565b5b600060149054906101000a900460ff166005811115610bac57610bab61218d565b5b14610bec576040517f08c379a0000000000000000000000000000000000000000000000000000000008152600401610be390612854565b60405180910390fd5b600454600360045481548110610c0557610c0461254f565b5b9060005260206000209060020201600001600360045481548110610c2c57610c2b61254f565b5b906000526020600020906002020160010154818054610c4a9061276b565b80601f0160208091040260200160405190810160405280929190818152602001828054610c769061276b565b8015610cc35780601f10610c9857610100808354040283529160200191610cc3565b820191906000526020600020905b815481529060010190602001808311610ca657829003601f168201915b50505050509150925092509250909192565b600060149054906101000a900460ff1681565b610cf0611a28565b73ffffffffffffffffffffffffffffffffffffffff16610d0e610b48565b73ffffffffffffffffffffffffffffffffffffffff1614610d64576040517f08c379a0000000000000000000000000000000000000000000000000000000008152600401610d5b906127e8565b60405180910390fd5b60006005811115610d7857610d7761218d565b5b600060149054906101000a900460ff166005811115610d9a57610d9961218d565b5b14610dda576040517f08c379a0000000000000000000000000000000000000000000000000000000008152600401610dd1906128c0565b60405180910390fd5b600073ffffffffffffffffffffffffffffffffffffffff168173ffffffffffffffffffffffffffffffffffffffff1603610e49576040517f08c379a0000000000000000000000000000000000000000000000000000000008152600401610e4090612952565b60405180910390fd5b60001515600160003373ffffffffffffffffffffffffffffffffffffffff1673ffffffffffffffffffffffffffffffffffffffff16815260200190815260200160002060000160009054906101000a90505050806002600081548110610eb257610eb161254f565b5b9060005260206000200160006101000a81548173ffffffffffffffffffffffffffffffffffffffff021916908373ffffffffffffffffffffffffffffffffffffffff16021790555060011515600160008373ffffffffffffffffffffffffffffffffffffffff1673ffffffffffffffffffffffffffffffffffffffff16815260200190815260200160002060000160009054906101000a905050507fb6be2187d059cc2a55fe29e0e503b566e1e0f8c8780096e185429350acffd3dd81604051610f7c91906120db565b60405180910390a1610f8d81611488565b50565b610f98611b7a565b60011515600160003373ffffffffffffffffffffffffffffffffffffffff1673ffffffffffffffffffffffffffffffffffffffff16815260200190815260200160002060000160009054906101000a900460ff1615151461102e576040517f08c379a000000000000000000000000000000000000000000000000000000000815260040161102590612362565b60405180910390fd5b600073ffffffffffffffffffffffffffffffffffffffff168273ffffffffffffffffffffffffffffffffffffffff160361109d576040517f08c379a000000000000000000000000000000000000000000000000000000000815260040161109490612952565b60405180910390fd5b600160008373ffffffffffffffffffffffffffffffffffffffff1673ffffffffffffffffffffffffffffffffffffffff1681526020019081526020016000206040518060600160405290816000820160009054906101000a900460ff161515151581526020016000820160019054906101000a900460ff161515151581526020016001820154815250509050919050565b611136611a28565b73ffffffffffffffffffffffffffffffffffffffff16611154610b48565b73ffffffffffffffffffffffffffffffffffffffff16146111aa576040517f08c379a00000000000000000000000000000000000000000000000000000000081526004016111a1906127e8565b60405180910390fd5b6005808111156111bd576111bc61218d565b5b600060149054906101000a900460ff1660058111156111df576111de61218d565b5b1461121f576040517f08c379a0000000000000000000000000000000000000000000000000000000008152600401611216906129be565b60405180910390fd5b60008060146101000a81548160ff021916908360058111156112445761124361218d565b5b02179055507f0a97a4ee45751e2abf3e4fc8946939630b11b371ea8ae39ccdc3056e98f5cc3f6005600060149054906101000a900460ff1660405161128a9291906129de565b60405180910390a160006004819055506000600380549050905060008190505b60008111156113095760038054806112c5576112c4612a07565b5b6001900381819060005260206000209060020201600080820160006112ea9190611b9f565b600182016000905550509055808061130190612a36565b9150506112aa565b50600060028054905090506000808290505b600081111561147957600260018261133391906124af565b815481106113445761134361254f565b5b9060005260206000200160009054906101000a900473ffffffffffffffffffffffffffffffffffffffff16915060405180606001604052806000151581526020016000151581526020016000815250600160008473ffffffffffffffffffffffffffffffffffffffff1673ffffffffffffffffffffffffffffffffffffffff16815260200190815260200160002060008201518160000160006101000a81548160ff02191690831515021790555060208201518160000160016101000a81548160ff02191690831515021790555060408201518160010155905050600280548061143157611430612a07565b5b6001900381819060005260206000200160006101000a81549073ffffffffffffffffffffffffffffffffffffffff02191690559055808061147190612a36565b91505061131b565b506114833361157f565b505050565b611490611a28565b73ffffffffffffffffffffffffffffffffffffffff166114ae610b48565b73ffffffffffffffffffffffffffffffffffffffff1614611504576040517f08c379a00000000000000000000000000000000000000000000000000000000081526004016114fb906127e8565b60405180910390fd5b600073ffffffffffffffffffffffffffffffffffffffff168173ffffffffffffffffffffffffffffffffffffffff1603611573576040517f08c379a000000000000000000000000000000000000000000000000000000000815260040161156a90612ad1565b60405180910390fd5b61157c81611a30565b50565b611587611a28565b73ffffffffffffffffffffffffffffffffffffffff166115a5610b48565b73ffffffffffffffffffffffffffffffffffffffff16146115fb576040517f08c379a00000000000000000000000000000000000000000000000000000000081526004016115f2906127e8565b60405180910390fd5b6000600581111561160f5761160e61218d565b5b600060149054906101000a900460ff1660058111156116315761163061218d565b5b14611671576040517f08c379a0000000000000000000000000000000000000000000000000000000008152600401611668906128c0565b60405180910390fd5b600073ffffffffffffffffffffffffffffffffffffffff168173ffffffffffffffffffffffffffffffffffffffff16036116e0576040517f08c379a00000000000000000000000000000000000000000000000000000000081526004016116d790612952565b60405180910390fd5b60001515600160008373ffffffffffffffffffffffffffffffffffffffff1673ffffffffffffffffffffffffffffffffffffffff16815260200190815260200160002060000160009054906101000a900460ff16151514611776576040517f08c379a000000000000000000000000000000000000000000000000000000000815260040161176d90612b63565b60405180910390fd5b60018060008373ffffffffffffffffffffffffffffffffffffffff1673ffffffffffffffffffffffffffffffffffffffff16815260200190815260200160002060000160006101000a81548160ff0219169083151502179055506002819080600181540180825580915050600190039060005260206000200160009091909190916101000a81548173ffffffffffffffffffffffffffffffffffffffff021916908373ffffffffffffffffffffffffffffffffffffffff1602179055507fb6be2187d059cc2a55fe29e0e503b566e1e0f8c8780096e185429350acffd3dd8160405161186291906120db565b60405180910390a150565b611875611a28565b73ffffffffffffffffffffffffffffffffffffffff16611893610b48565b73ffffffffffffffffffffffffffffffffffffffff16146118e9576040517f08c379a00000000000000000000000000000000000000000000000000000000081526004016118e0906127e8565b60405180910390fd5b6005808111156118fc576118fb61218d565b5b600060149054906101000a900460ff16600581111561191e5761191d61218d565b5b0361195e576040517f08c379a000000000000000000000000000000000000000000000000000000000815260040161195590612bcf565b60405180910390fd5b60008060149054906101000a900460ff1660058111156119815761198061218d565b5b9050600181611990919061257e565b60058111156119a2576119a161218d565b5b600060146101000a81548160ff021916908360058111156119c6576119c561218d565b5b02179055507f0a97a4ee45751e2abf3e4fc8946939630b11b371ea8ae39ccdc3056e98f5cc3f8160058111156119ff576119fe61218d565b5b600060149054906101000a900460ff16604051611a1d9291906129de565b60405180910390a150565b600033905090565b60008060009054906101000a900473ffffffffffffffffffffffffffffffffffffffff169050816000806101000a81548173ffffffffffffffffffffffffffffffffffffffff021916908373ffffffffffffffffffffffffffffffffffffffff1602179055508173ffffffffffffffffffffffffffffffffffffffff168173ffffffffffffffffffffffffffffffffffffffff167f8be0079c531659141344cd1fd0a4f28419497f9722a3daafe3b4186f6b6457e060405160405180910390a35050565b828054611b009061276b565b90600052602060002090601f016020900481019282611b225760008555611b69565b82601f10611b3b57805160ff1916838001178555611b69565b82800160010185558215611b69579182015b82811115611b68578251825591602001919060010190611b4d565b5b509050611b769190611bdf565b5090565b6040518060600160405280600015158152602001600015158152602001600081525090565b508054611bab9061276b565b6000825580601f10611bbd5750611bdc565b601f016020900490600052602060002090810190611bdb9190611bdf565b5b50565b5b80821115611bf8576000816000905550600101611be0565b5090565b600081519050919050565b600082825260208201905092915050565b6000819050602082019050919050565b600073ffffffffffffffffffffffffffffffffffffffff82169050919050565b6000611c5382611c28565b9050919050565b611c6381611c48565b82525050565b6000611c758383611c5a565b60208301905092915050565b6000602082019050919050565b6000611c9982611bfc565b611ca38185611c07565b9350611cae83611c18565b8060005b83811015611cdf578151611cc68882611c69565b9750611cd183611c81565b925050600181019050611cb2565b5085935050505092915050565b60006020820190508181036000830152611d068184611c8e565b905092915050565b6000604051905090565b600080fd5b600080fd5b6000819050919050565b611d3581611d22565b8114611d4057600080fd5b50565b600081359050611d5281611d2c565b92915050565b600060208284031215611d6e57611d6d611d18565b5b6000611d7c84828501611d43565b91505092915050565b600080fd5b600080fd5b6000601f19601f8301169050919050565b7f4e487b7100000000000000000000000000000000000000000000000000000000600052604160045260246000fd5b611dd882611d8f565b810181811067ffffffffffffffff82111715611df757611df6611da0565b5b80604052505050565b6000611e0a611d0e565b9050611e168282611dcf565b919050565b600067ffffffffffffffff821115611e3657611e35611da0565b5b611e3f82611d8f565b9050602081019050919050565b82818337600083830152505050565b6000611e6e611e6984611e1b565b611e00565b905082815260208101848484011115611e8a57611e89611d8a565b5b611e95848285611e4c565b509392505050565b600082601f830112611eb257611eb1611d85565b5b8135611ec2848260208601611e5b565b91505092915050565b600060208284031215611ee157611ee0611d18565b5b600082013567ffffffffffffffff811115611eff57611efe611d1d565b5b611f0b84828501611e9d565b91505092915050565b600081519050919050565b600082825260208201905092915050565b6000819050602082019050919050565b600081519050919050565b600082825260208201905092915050565b60005b83811015611f7a578082015181840152602081019050611f5f565b83811115611f89576000848401525b50505050565b6000611f9a82611f40565b611fa48185611f4b565b9350611fb4818560208601611f5c565b611fbd81611d8f565b840191505092915050565b611fd181611d22565b82525050565b60006040830160008301518482036000860152611ff48282611f8f565b91505060208301516120096020860182611fc8565b508091505092915050565b60006120208383611fd7565b905092915050565b6000602082019050919050565b600061204082611f14565b61204a8185611f1f565b93508360208202850161205c85611f30565b8060005b8581101561209857848403895281516120798582612014565b945061208483612028565b925060208a01995050600181019050612060565b50829750879550505050505092915050565b600060208201905081810360008301526120c48184612035565b905092915050565b6120d581611c48565b82525050565b60006020820190506120f060008301846120cc565b92915050565b6120ff81611d22565b82525050565b600082825260208201905092915050565b600061212182611f40565b61212b8185612105565b935061213b818560208601611f5c565b61214481611d8f565b840191505092915050565b600060608201905061216460008301866120f6565b81810360208301526121768185612116565b905061218560408301846120f6565b949350505050565b7f4e487b7100000000000000000000000000000000000000000000000000000000600052602160045260246000fd5b600681106121cd576121cc61218d565b5b50565b60008190506121de826121bc565b919050565b60006121ee826121d0565b9050919050565b6121fe816121e3565b82525050565b600060208201905061221960008301846121f5565b92915050565b61222881611c48565b811461223357600080fd5b50565b6000813590506122458161221f565b92915050565b60006020828403121561226157612260611d18565b5b600061226f84828501612236565b91505092915050565b60008115159050919050565b61228d81612278565b82525050565b6060820160008201516122a96000850182612284565b5060208201516122bc6020850182612284565b5060408201516122cf6040850182611fc8565b50505050565b60006060820190506122ea6000830184612293565b92915050565b7f54686973206164647265737320646f6573206e6f74206861766520746865207260008201527f696768747320746f2070617274696369706174652e0000000000000000000000602082015250565b600061234c603583612105565b9150612357826122f0565b604082019050919050565b6000602082019050818103600083015261237b8161233f565b9050919050565b7f5468652070726f706f73616c20766f74696e6720706572696f64206973206f7660008201527f6572206f7220686173206e6f742073746172746564207965742e000000000000602082015250565b60006123de603a83612105565b91506123e982612382565b604082019050919050565b6000602082019050818103600083015261240d816123d1565b9050919050565b7f5468697320766f7465722068617320616c726561647920766f7465642e000000600082015250565b600061244a601d83612105565b915061245582612414565b602082019050919050565b600060208201905081810360008301526124798161243d565b9050919050565b7f4e487b7100000000000000000000000000000000000000000000000000000000600052601160045260246000fd5b60006124ba82611d22565b91506124c583611d22565b9250828210156124d8576124d7612480565b5b828203905092915050565b7f5468652070726f706f73616c204944206973206e6f742076616c69642e000000600082015250565b6000612519601d83612105565b9150612524826124e3565b602082019050919050565b600060208201905081810360008301526125488161250c565b9050919050565b7f4e487b7100000000000000000000000000000000000000000000000000000000600052603260045260246000fd5b600061258982611d22565b915061259483611d22565b9250827fffffffffffffffffffffffffffffffffffffffffffffffffffffffffffffffff038211156125c9576125c8612480565b5b828201905092915050565b60006040820190506125e960008301856120cc565b6125f660208301846120f6565b9392505050565b7f5468652070726f706f73616c207265676973746572696e6720706572696f642060008201527f6973206f766572206f7220686173206e6f742073746172746564207965742e00602082015250565b6000612659603f83612105565b9150612664826125fd565b604082019050919050565b600060208201905081810360008301526126888161264c565b9050919050565b60006020820190506126a460008301846120f6565b92915050565b7f5468652070726f706f73616c207265676973746572696e6720706572696f642060008201527f686173206e6f742073746172746564207965742e000000000000000000000000602082015250565b6000612706603483612105565b9150612711826126aa565b604082019050919050565b60006020820190508181036000830152612735816126f9565b9050919050565b7f4e487b7100000000000000000000000000000000000000000000000000000000600052602260045260246000fd5b6000600282049050600182168061278357607f821691505b6020821081036127965761279561273c565b5b50919050565b7f4f776e61626c653a2063616c6c6572206973206e6f7420746865206f776e6572600082015250565b60006127d2602083612105565b91506127dd8261279c565b602082019050919050565b60006020820190508181036000830152612801816127c5565b9050919050565b7f54686520766f74696e67206973207374696c6c20696e2070726f67726573732e600082015250565b600061283e602083612105565b915061284982612808565b602082019050919050565b6000602082019050818103600083015261286d81612831565b9050919050565b7f546865207265676973746572696e6720706572696f64206973206f7665722e00600082015250565b60006128aa601f83612105565b91506128b582612874565b602082019050919050565b600060208201905081810360008301526128d98161289d565b9050919050565b7f5468652061646472657373206e6565647320746f20626520646966666572656e60008201527f742066726f6d207a65726f2e0000000000000000000000000000000000000000602082015250565b600061293c602c83612105565b9150612947826128e0565b604082019050919050565b6000602082019050818103600083015261296b8161292f565b9050919050565b7f54686520766f74696e67206973207374696c6c206f6e676f696e672e00000000600082015250565b60006129a8601c83612105565b91506129b382612972565b602082019050919050565b600060208201905081810360008301526129d78161299b565b9050919050565b60006040820190506129f360008301856121f5565b612a0060208301846121f5565b9392505050565b7f4e487b7100000000000000000000000000000000000000000000000000000000600052603160045260246000fd5b6000612a4182611d22565b915060008203612a5457612a53612480565b5b600182039050919050565b7f4f776e61626c653a206e6577206f776e657220697320746865207a65726f206160008201527f6464726573730000000000000000000000000000000000000000000000000000602082015250565b6000612abb602683612105565b9150612ac682612a5f565b604082019050919050565b60006020820190508181036000830152612aea81612aae565b9050919050565b7f5468697320766f74657220686173206265656e20616c7265616479207265676960008201527f7374657265642e00000000000000000000000000000000000000000000000000602082015250565b6000612b4d602783612105565b9150612b5882612af1565b604082019050919050565b60006020820190508181036000830152612b7c81612b40565b9050919050565b7f54686520766f74696e672068617320616c726561647920656e6465642e000000600082015250565b6000612bb9601d83612105565b9150612bc482612b83565b602082019050919050565b60006020820190508181036000830152612be881612bac565b905091905056fea2646970667358221220ff32992870ee9857f07fb853684567d690bca9e86f583f7932ed36d419d882f664736f6c634300080d0033",
  "immutableReferences": {},
  "source": "// SPDX-License-Identifier: GPL-3.0\n\npragma solidity 0.8.13;\n\nimport \"../node_modules/@openzeppelin/contracts/access/Ownable.sol\";\n\n/// @title A decentralized voting system\n/// @author Sbastien Dupertuis\n/// @notice V2, Topic of the third project for Alyra school. The V2 takes into account the good practices and comments from the first correction.\n/// @dev \ncontract Voting is Ownable {\n    //------------------------------------------------------------------------------------\n    // ----------------------------------Variables----------------------------------------\n    //------------------------------------------------------------------------------------\n\n    /// @notice This is the structure that contains all the information about a voter\n    /// @dev \n    struct Voter {\n        bool isRegistered;\n        bool hasVoted;\n        uint votedProposalId;\n    }\n\n    /// @notice This is the structure that contains a proposal and how many votes it got\n    /// @dev \n    struct Proposal {\n        string description;\n        uint voteCount;\n    }\n\n    /// @notice Enumeration that manages the full voting procedure\n    /// @dev \n    enum WorkflowStatus {\n        RegisteringVoters,\n        ProposalsRegistrationStarted,\n        ProposalsRegistrationEnded,\n        VotingSessionStarted,\n        VotingSessionEnded,\n        VotesTallied\n    }\n\n    /// @notice Variable to contain the current status. V2: changed to public (was private)\n    WorkflowStatus public workflowStatus;\n    /// @notice Mapping of voters\n    mapping (address => Voter) voters;\n    /// @notice Table of voters addresses (used to reset the voting)\n    address[] private _whitelist;\n    /// @notice Table of proposals\n    Proposal[] private _proposals;\n    /// @notice Variable containing the winning proposal ID\n    uint private _winningProposalId;\n\n    //------------------------------------------------------------------------------------\n    // ------------------------------------Events-----------------------------------------\n    //------------------------------------------------------------------------------------\n\n    /// @notice Event raised when a new voter has registered\n    event VoterRegistered(address _voterAddress);\n    /// @notice Event raised when the admin modified the current status of the voting procedure\n    event WorkflowStatusChange(WorkflowStatus _previousStatus, WorkflowStatus _newStatus);\n    /// @notice Event raised when a voter registered a proposal\n    event ProposalRegistered(uint _proposalId);\n    /// @notice Event raised when voter has voted\n    event Voted (address _voter, uint _proposalId);\n \n    //------------------------------------------------------------------------------------\n    // ----------------------------------Constructor--------------------------------------\n    //------------------------------------------------------------------------------------\n\n    /// @notice The constructor initializing the admin as a voter\n    constructor () {\n        addVoter(msg.sender);\n    }\n\n    //------------------------------------------------------------------------------------\n    // -----------------------------------Modifiers---------------------------------------\n    //------------------------------------------------------------------------------------\n\n    /// @notice Modifier to allow only voters\n    modifier onlyVoters {\n        require(voters[msg.sender].isRegistered == true,\"This address does not have the rights to participate.\");\n        _;\n    }\n\n    //------------------------------------------------------------------------------------\n    // -----------------------------------Functions---------------------------------------\n    //------------------------------------------------------------------------------------\n\n    /// @notice This function allows the owner to manage the voting status\n    /// @dev Function to be called by the admin through the front end\n    function nextStatus() external onlyOwner {\n        require(workflowStatus != WorkflowStatus.VotesTallied, \"The voting has already ended.\");    // Make sure the voting is not finished\n        \n        uint _oldStatusID = uint(workflowStatus);           // Save the current status as old status\n        workflowStatus = WorkflowStatus(_oldStatusID+1);    // Update the status \n    \n        emit WorkflowStatusChange(WorkflowStatus(_oldStatusID),workflowStatus);  // Raise the event to log the status change \n    }\n\n    /// @notice This function allows the owner to add a voter in the whitelist\n    /// @dev Function to be called by the admin through the front end\n    /// @param _address The address to be added in the whitelist\n    function addVoter(address _address) public onlyOwner {\n        require(workflowStatus == WorkflowStatus.RegisteringVoters,\"The registering period is over.\");      // Make sure the registration phase is still in progress\n        require(_address != address(0),\"The address needs to be different from zero.\");             // Make sure the address is valid\n        require(voters[_address].isRegistered == false,\"This voter has been already registered.\");   // Revert if the voter was already registered (to aboid unnecessary actions)\n\n        // Add the voter in the whitelist (mapping and array)\n        //voters[_address] = Voter(true,false,0); // V2: correction to not assign the values that are already equal to 0 by default.\n        voters[_address].isRegistered = true;\n        _whitelist.push(_address);\n\n        emit VoterRegistered(_address);  // Raise the event to log the new voter registration \n    }\n\n    /// @notice This function allows the voters to place a proposal\n    /// @dev Function to be called by the voters through the front end\n    /// @param _description The description of the proposal\n    function addProposal(string memory _description) external onlyVoters {\n        require(workflowStatus == WorkflowStatus.ProposalsRegistrationStarted,\"The proposal registering period is over or has not started yet.\");      // Make sure the proposal registration phase is in progress\n    \n        // Push the new proposal in the array\n        Proposal memory proposal = Proposal(_description, 0);\n        _proposals.push(proposal);\n\n        emit ProposalRegistered(_proposals.length-1);  // Raise the event to log the new proposal registration \n    }\n\n    /// @notice This function allows the voters to vote for a single proposal. V2: calculate live the winning proposal (to avoid the for loop and then the DoS)\n    /// @dev Function to be called by the voters through the front end\n    /// @param _proposalID The proposal ID that receive a vote\n    function setVote(uint _proposalID) external onlyVoters {\n        require(workflowStatus == WorkflowStatus.VotingSessionStarted,\"The proposal voting period is over or has not started yet.\");      // Make sure the voting phase is in progress\n        require(voters[msg.sender].hasVoted == false,\"This voter has already voted.\");   // Revert if the voter has already voted\n        require(_proposalID <= _proposals.length-1,\"The proposal ID is not valid.\");\n\n        _proposals[_proposalID].voteCount += 1;  // Increment the vote count of the given proposal\n\n        voters[msg.sender].hasVoted = true;                 // This voter has now voted\n        voters[msg.sender].votedProposalId = _proposalID;   // Save the choice of the voter\n\n        // \n        if(_proposals[_proposalID].voteCount > _proposals[_winningProposalId].voteCount) {\n            _winningProposalId = _proposalID;\n        }\n\n        emit Voted(msg.sender,_proposalID);  // Raise the event to log vote and voter address\n    }\n\n    /// @notice This function used to calculate the voting result. V2: removed in order to avoid a DoS - Gas Limit\n    /// @dev Function to be called by the admin through the front end\n    /*function calculateResult() external onlyOwner {\n        require(workflowStatus == WorkflowStatus.VotingSessionEnded,\"The voting is still in progress or has not started yet.\");        // Make sure the voting is finished\n        require(_proposals.length > 0,\"There are no proposals in the list.\");                            // Make sure there is at least one proposal in the list\n\n        for(uint i=1;i<_proposals.length;i++) {\n            if(_proposals[i].voteCount > _proposals[_winningProposalId].voteCount) {\n                _winningProposalId = i;\n            }\n        }\n    }*/\n\n    /// @notice This function returns the voting result. The result is opened to anyone\n    /// @dev Function to be called by anyone through the front end\n    /// @return Returns the winning proposal ID, his description and the amount of votes\n    function getWinner() external view returns (uint,string memory,uint) {\n        require(workflowStatus == WorkflowStatus.VotesTallied,\"The voting is still in progress.\");      // Make sure the voting is finished\n\n        return (_winningProposalId,_proposals[_winningProposalId].description,_proposals[_winningProposalId].voteCount);\n    }\n\n/*\n    /// @notice This function allows the voters to see what the other voters have voted. V2: code optimization, this function is not needed anymore\n    /// @dev Function to be called by the voters through the front end\n    /// @param _address The address to check the vote\n    /// @return Returns the voted ID of the given voter defined by _address\n    function getVotedID(address _address) external view onlyVoters returns (uint) {\n        require(workflowStatus >= WorkflowStatus.VotingSessionStarted,\"The voting period did not start yet.\");      // Make sure the voting phase has started\n        require(_address != address(0),\"The address needs to be different from zero.\");             // Make sure the address is valid\n        require(voters[_address].isRegistered == true,\"This address does not belong to the whitelist.\");\n        require(voters[_address].hasVoted == true,\"This voter has not voted yet.\");   // Revert if the voter has not voted yet\n    \n        return voters[_address].votedProposalId;    // Return the vote of the requested voter\n    }*/\n\n    /// @notice This function resets the voting once closed\n    /// @dev Function to be called by the admin through the front end\n    function reset() external onlyOwner{\n        require(workflowStatus == WorkflowStatus.VotesTallied, \"The voting is still ongoing.\");    // Make sure the voting is finished\n\n        workflowStatus = WorkflowStatus.RegisteringVoters;  // Reset status\n        emit WorkflowStatusChange(WorkflowStatus(WorkflowStatus.VotesTallied),workflowStatus);  // Raise the event to log the status change \n\n        _winningProposalId = 0;                      // Reset winning ID\n\n        // Reset proposal table\n        uint proposalsTabSize=_proposals.length;\n        for (uint i=proposalsTabSize; i>0; i--){\n            _proposals.pop();\n        }\n\n        // Reset voters mapping\n        uint whiteListSize=_whitelist.length;\n        address  tempAddress;\n        for (uint i=whiteListSize; i>0; i--){\n            tempAddress=_whitelist[i-1];\n            voters[tempAddress] = Voter(false,false,0); \n            _whitelist.pop();\n        }\n\n        addVoter(msg.sender);   // Re-add admin as a voter\n    }\n\n    /// @notice This function allows the voters to see what the other voters have voted\n    /// @dev Function to be called by the owner through the front end\n    /// @param _address The address to become the new owner\n    function changeOwner(address _address) external onlyOwner {\n        require(workflowStatus == WorkflowStatus.RegisteringVoters,\"The registering period is over.\");      // Make sure the registration phase is still in progress\n        require(_address != address(0),\"The address needs to be different from zero.\");             // Make sure the address is valid\n        \n        voters[msg.sender].isRegistered == false ;      // Remove the rights to the old owner (the new one can still add him, in case)\n        _whitelist[0] = _address;                        // Replace the old admin by the new one in the whitelist table\n        voters[_address].isRegistered == true ; \n\n        emit VoterRegistered(_address);                 // Raise the event to log the new voter registration \n\n        transferOwnership(_address);                    // Call the function to effectively change the owner\n    }\n\n    // ::::::::::::: V2: NEW GETTERS to help with the creation of the DApp::::::::::::: //\n\n    /// @notice This function returns a list of registered voters, only for the voters\n    /// @dev Function to be called by the voters through the front end\n    /// @return Returns a list of addresses\n    function getWhiteList() external onlyVoters view returns(address[] memory){\n       return _whitelist;\n    }\n\n    function getVoter(address _address) external onlyVoters view returns (Voter memory) {\n        require(_address != address(0),\"The address needs to be different from zero.\");             // Make sure the address is valid\n\n        return voters[_address];\n    }\n\n    /// @notice This function returns a list of registered voters, only for the voters\n    /// @dev Function to be called by the voters through the front end\n    /// @return Returns a list of addresses\n    function getProposals() external onlyVoters view returns(Proposal[] memory){\n        require(workflowStatus >= WorkflowStatus.ProposalsRegistrationStarted,\"The proposal registering period has not started yet.\");      // Make sure the proposal registration phase has started\n       \n        return _proposals;\n    }\n}\n",
  "sourcePath": "/home/sebastien/Alyra/Developpeur-Ethereum-Template/6. Dapp/Projet #3/contracts/Voting.sol",
  "compiler": {
    "name": "solc",
    "version": "0.8.13+commit.abaa5c0e.Emscripten.clang"
  },
  "schemaVersion": "3.4.7",
  "updatedAt": "2022-04-26T14:37:46.539Z",
  "networkType": "ethereum",
  "devdoc": {
    "author": "Sbastien Dupertuis",
    "kind": "dev",
    "methods": {
      "addProposal(string)": {
        "details": "Function to be called by the voters through the front end",
        "params": {
          "_description": "The description of the proposal"
        }
      },
      "addVoter(address)": {
        "details": "Function to be called by the admin through the front end",
        "params": {
          "_address": "The address to be added in the whitelist"
        }
      },
      "changeOwner(address)": {
        "details": "Function to be called by the owner through the front end",
        "params": {
          "_address": "The address to become the new owner"
        }
      },
      "getProposals()": {
        "details": "Function to be called by the voters through the front end",
        "returns": {
          "_0": "Returns a list of addresses"
        }
      },
      "getWhiteList()": {
        "details": "Function to be called by the voters through the front end",
        "returns": {
          "_0": "Returns a list of addresses"
        }
      },
      "getWinner()": {
        "details": "Function to be called by anyone through the front end",
        "returns": {
          "_0": "Returns the winning proposal ID, his description and the amount of votes"
        }
      },
      "nextStatus()": {
        "details": "Function to be called by the admin through the front end"
      },
      "owner()": {
        "details": "Returns the address of the current owner."
      },
      "renounceOwnership()": {
        "details": "Leaves the contract without owner. It will not be possible to call `onlyOwner` functions anymore. Can only be called by the current owner. NOTE: Renouncing ownership will leave the contract without an owner, thereby removing any functionality that is only available to the owner."
      },
      "reset()": {
        "details": "Function to be called by the admin through the front end"
      },
      "setVote(uint256)": {
        "details": "Function to be called by the voters through the front end",
        "params": {
          "_proposalID": "The proposal ID that receive a vote"
        }
      },
      "transferOwnership(address)": {
        "details": "Transfers ownership of the contract to a new account (`newOwner`). Can only be called by the current owner."
      }
    },
    "title": "A decentralized voting system",
    "version": 1
  },
  "userdoc": {
    "events": {
      "ProposalRegistered(uint256)": {
        "notice": "Event raised when a voter registered a proposal"
      },
      "Voted(address,uint256)": {
        "notice": "Event raised when voter has voted"
      },
      "VoterRegistered(address)": {
        "notice": "Event raised when a new voter has registered"
      },
      "WorkflowStatusChange(uint8,uint8)": {
        "notice": "Event raised when the admin modified the current status of the voting procedure"
      }
    },
    "kind": "user",
    "methods": {
      "addProposal(string)": {
        "notice": "This function allows the voters to place a proposal"
      },
      "addVoter(address)": {
        "notice": "This function allows the owner to add a voter in the whitelist"
      },
      "changeOwner(address)": {
        "notice": "This function allows the voters to see what the other voters have voted"
      },
      "constructor": {
        "notice": "The constructor initializing the admin as a voter"
      },
      "getProposals()": {
        "notice": "This function returns a list of registered voters, only for the voters"
      },
      "getWhiteList()": {
        "notice": "This function returns a list of registered voters, only for the voters"
      },
      "getWinner()": {
        "notice": "This function returns the voting result. The result is opened to anyone"
      },
      "nextStatus()": {
        "notice": "This function allows the owner to manage the voting status"
      },
      "reset()": {
        "notice": "This function resets the voting once closed"
      },
      "setVote(uint256)": {
        "notice": "This function allows the voters to vote for a single proposal. V2: calculate live the winning proposal (to avoid the for loop and then the DoS)"
      },
      "workflowStatus()": {
        "notice": "Variable to contain the current status. V2: changed to public (was private)"
      }
    },
    "notice": "V2, Topic of the third project for Alyra school. The V2 takes into account the good practices and comments from the first correction.",
    "version": 1
  }
}